{
  "_format": "hh-sol-artifact-1",
  "contractName": "SimpleToken",
  "sourceName": "contracts/SimpleToken.sol",
  "abi": [
    {
      "inputs": [
        {
          "internalType": "string",
          "name": "name",
          "type": "string"
        },
        {
          "internalType": "string",
          "name": "symbol",
          "type": "string"
        },
        {
          "internalType": "uint8",
          "name": "decimals_",
          "type": "uint8"
        },
        {
          "internalType": "uint256",
          "name": "initial_supply",
          "type": "uint256"
        }
      ],
      "stateMutability": "nonpayable",
      "type": "constructor"
    },
    {
      "anonymous": false,
      "inputs": [
        {
          "indexed": true,
          "internalType": "address",
          "name": "owner",
          "type": "address"
        },
        {
          "indexed": true,
          "internalType": "address",
          "name": "spender",
          "type": "address"
        },
        {
          "indexed": false,
          "internalType": "uint256",
          "name": "value",
          "type": "uint256"
        }
      ],
      "name": "Approval",
      "type": "event"
    },
    {
      "anonymous": false,
      "inputs": [
        {
          "indexed": false,
          "internalType": "address",
          "name": "account",
          "type": "address"
        }
      ],
      "name": "Paused",
      "type": "event"
    },
    {
      "anonymous": false,
      "inputs": [
        {
          "indexed": true,
          "internalType": "bytes32",
          "name": "role",
          "type": "bytes32"
        },
        {
          "indexed": true,
          "internalType": "bytes32",
          "name": "previousAdminRole",
          "type": "bytes32"
        },
        {
          "indexed": true,
          "internalType": "bytes32",
          "name": "newAdminRole",
          "type": "bytes32"
        }
      ],
      "name": "RoleAdminChanged",
      "type": "event"
    },
    {
      "anonymous": false,
      "inputs": [
        {
          "indexed": true,
          "internalType": "bytes32",
          "name": "role",
          "type": "bytes32"
        },
        {
          "indexed": true,
          "internalType": "address",
          "name": "account",
          "type": "address"
        },
        {
          "indexed": true,
          "internalType": "address",
          "name": "sender",
          "type": "address"
        }
      ],
      "name": "RoleGranted",
      "type": "event"
    },
    {
      "anonymous": false,
      "inputs": [
        {
          "indexed": true,
          "internalType": "bytes32",
          "name": "role",
          "type": "bytes32"
        },
        {
          "indexed": true,
          "internalType": "address",
          "name": "account",
          "type": "address"
        },
        {
          "indexed": true,
          "internalType": "address",
          "name": "sender",
          "type": "address"
        }
      ],
      "name": "RoleRevoked",
      "type": "event"
    },
    {
      "anonymous": false,
      "inputs": [
        {
          "indexed": true,
          "internalType": "address",
          "name": "from",
          "type": "address"
        },
        {
          "indexed": true,
          "internalType": "address",
          "name": "to",
          "type": "address"
        },
        {
          "indexed": false,
          "internalType": "uint256",
          "name": "value",
          "type": "uint256"
        }
      ],
      "name": "Transfer",
      "type": "event"
    },
    {
      "anonymous": false,
      "inputs": [
        {
          "indexed": false,
          "internalType": "address",
          "name": "account",
          "type": "address"
        }
      ],
      "name": "Unpaused",
      "type": "event"
    },
    {
      "inputs": [],
      "name": "DEFAULT_ADMIN_ROLE",
      "outputs": [
        {
          "internalType": "bytes32",
          "name": "",
          "type": "bytes32"
        }
      ],
      "stateMutability": "view",
      "type": "function"
    },
    {
      "inputs": [],
      "name": "INITIAL_SUPPLY",
      "outputs": [
        {
          "internalType": "uint256",
          "name": "",
          "type": "uint256"
        }
      ],
      "stateMutability": "view",
      "type": "function"
    },
    {
      "inputs": [],
      "name": "MINTER_ROLE",
      "outputs": [
        {
          "internalType": "bytes32",
          "name": "",
          "type": "bytes32"
        }
      ],
      "stateMutability": "view",
      "type": "function"
    },
    {
      "inputs": [],
      "name": "PAUSER_ROLE",
      "outputs": [
        {
          "internalType": "bytes32",
          "name": "",
          "type": "bytes32"
        }
      ],
      "stateMutability": "view",
      "type": "function"
    },
    {
      "inputs": [
        {
          "internalType": "address",
          "name": "owner",
          "type": "address"
        },
        {
          "internalType": "address",
          "name": "spender",
          "type": "address"
        }
      ],
      "name": "allowance",
      "outputs": [
        {
          "internalType": "uint256",
          "name": "",
          "type": "uint256"
        }
      ],
      "stateMutability": "view",
      "type": "function"
    },
    {
      "inputs": [
        {
          "internalType": "address",
          "name": "spender",
          "type": "address"
        },
        {
          "internalType": "uint256",
          "name": "amount",
          "type": "uint256"
        }
      ],
      "name": "approve",
      "outputs": [
        {
          "internalType": "bool",
          "name": "",
          "type": "bool"
        }
      ],
      "stateMutability": "nonpayable",
      "type": "function"
    },
    {
      "inputs": [
        {
          "internalType": "address",
          "name": "account",
          "type": "address"
        }
      ],
      "name": "balanceOf",
      "outputs": [
        {
          "internalType": "uint256",
          "name": "",
          "type": "uint256"
        }
      ],
      "stateMutability": "view",
      "type": "function"
    },
    {
      "inputs": [
        {
          "internalType": "uint256",
          "name": "amount",
          "type": "uint256"
        }
      ],
      "name": "burn",
      "outputs": [],
      "stateMutability": "nonpayable",
      "type": "function"
    },
    {
      "inputs": [
        {
          "internalType": "address",
          "name": "account",
          "type": "address"
        },
        {
          "internalType": "uint256",
          "name": "amount",
          "type": "uint256"
        }
      ],
      "name": "burnFrom",
      "outputs": [],
      "stateMutability": "nonpayable",
      "type": "function"
    },
    {
      "inputs": [],
      "name": "decimals",
      "outputs": [
        {
          "internalType": "uint8",
          "name": "",
          "type": "uint8"
        }
      ],
      "stateMutability": "view",
      "type": "function"
    },
    {
      "inputs": [
        {
          "internalType": "address",
          "name": "spender",
          "type": "address"
        },
        {
          "internalType": "uint256",
          "name": "subtractedValue",
          "type": "uint256"
        }
      ],
      "name": "decreaseAllowance",
      "outputs": [
        {
          "internalType": "bool",
          "name": "",
          "type": "bool"
        }
      ],
      "stateMutability": "nonpayable",
      "type": "function"
    },
    {
      "inputs": [
        {
          "internalType": "bytes32",
          "name": "role",
          "type": "bytes32"
        }
      ],
      "name": "getRoleAdmin",
      "outputs": [
        {
          "internalType": "bytes32",
          "name": "",
          "type": "bytes32"
        }
      ],
      "stateMutability": "view",
      "type": "function"
    },
    {
      "inputs": [
        {
          "internalType": "bytes32",
          "name": "role",
          "type": "bytes32"
        },
        {
          "internalType": "uint256",
          "name": "index",
          "type": "uint256"
        }
      ],
      "name": "getRoleMember",
      "outputs": [
        {
          "internalType": "address",
          "name": "",
          "type": "address"
        }
      ],
      "stateMutability": "view",
      "type": "function"
    },
    {
      "inputs": [
        {
          "internalType": "bytes32",
          "name": "role",
          "type": "bytes32"
        }
      ],
      "name": "getRoleMemberCount",
      "outputs": [
        {
          "internalType": "uint256",
          "name": "",
          "type": "uint256"
        }
      ],
      "stateMutability": "view",
      "type": "function"
    },
    {
      "inputs": [
        {
          "internalType": "bytes32",
          "name": "role",
          "type": "bytes32"
        },
        {
          "internalType": "address",
          "name": "account",
          "type": "address"
        }
      ],
      "name": "grantRole",
      "outputs": [],
      "stateMutability": "nonpayable",
      "type": "function"
    },
    {
      "inputs": [
        {
          "internalType": "bytes32",
          "name": "role",
          "type": "bytes32"
        },
        {
          "internalType": "address",
          "name": "account",
          "type": "address"
        }
      ],
      "name": "hasRole",
      "outputs": [
        {
          "internalType": "bool",
          "name": "",
          "type": "bool"
        }
      ],
      "stateMutability": "view",
      "type": "function"
    },
    {
      "inputs": [
        {
          "internalType": "address",
          "name": "spender",
          "type": "address"
        },
        {
          "internalType": "uint256",
          "name": "addedValue",
          "type": "uint256"
        }
      ],
      "name": "increaseAllowance",
      "outputs": [
        {
          "internalType": "bool",
          "name": "",
          "type": "bool"
        }
      ],
      "stateMutability": "nonpayable",
      "type": "function"
    },
    {
      "inputs": [
        {
          "internalType": "address",
          "name": "to",
          "type": "address"
        },
        {
          "internalType": "uint256",
          "name": "amount",
          "type": "uint256"
        }
      ],
      "name": "mint",
      "outputs": [],
      "stateMutability": "nonpayable",
      "type": "function"
    },
    {
      "inputs": [],
      "name": "name",
      "outputs": [
        {
          "internalType": "string",
          "name": "",
          "type": "string"
        }
      ],
      "stateMutability": "view",
      "type": "function"
    },
    {
      "inputs": [],
      "name": "pause",
      "outputs": [],
      "stateMutability": "nonpayable",
      "type": "function"
    },
    {
      "inputs": [],
      "name": "paused",
      "outputs": [
        {
          "internalType": "bool",
          "name": "",
          "type": "bool"
        }
      ],
      "stateMutability": "view",
      "type": "function"
    },
    {
      "inputs": [
        {
          "internalType": "bytes32",
          "name": "role",
          "type": "bytes32"
        },
        {
          "internalType": "address",
          "name": "account",
          "type": "address"
        }
      ],
      "name": "renounceRole",
      "outputs": [],
      "stateMutability": "nonpayable",
      "type": "function"
    },
    {
      "inputs": [
        {
          "internalType": "bytes32",
          "name": "role",
          "type": "bytes32"
        },
        {
          "internalType": "address",
          "name": "account",
          "type": "address"
        }
      ],
      "name": "revokeRole",
      "outputs": [],
      "stateMutability": "nonpayable",
      "type": "function"
    },
    {
      "inputs": [
        {
          "internalType": "bytes4",
          "name": "interfaceId",
          "type": "bytes4"
        }
      ],
      "name": "supportsInterface",
      "outputs": [
        {
          "internalType": "bool",
          "name": "",
          "type": "bool"
        }
      ],
      "stateMutability": "view",
      "type": "function"
    },
    {
      "inputs": [],
      "name": "symbol",
      "outputs": [
        {
          "internalType": "string",
          "name": "",
          "type": "string"
        }
      ],
      "stateMutability": "view",
      "type": "function"
    },
    {
      "inputs": [],
      "name": "totalSupply",
      "outputs": [
        {
          "internalType": "uint256",
          "name": "",
          "type": "uint256"
        }
      ],
      "stateMutability": "view",
      "type": "function"
    },
    {
      "inputs": [
        {
          "internalType": "address",
          "name": "to",
          "type": "address"
        },
        {
          "internalType": "uint256",
          "name": "amount",
          "type": "uint256"
        }
      ],
      "name": "transfer",
      "outputs": [
        {
          "internalType": "bool",
          "name": "",
          "type": "bool"
        }
      ],
      "stateMutability": "nonpayable",
      "type": "function"
    },
    {
      "inputs": [
        {
          "internalType": "address",
          "name": "from",
          "type": "address"
        },
        {
          "internalType": "address",
          "name": "to",
          "type": "address"
        },
        {
          "internalType": "uint256",
          "name": "amount",
          "type": "uint256"
        }
      ],
      "name": "transferFrom",
      "outputs": [
        {
          "internalType": "bool",
          "name": "",
          "type": "bool"
        }
      ],
      "stateMutability": "nonpayable",
      "type": "function"
    },
    {
      "inputs": [],
      "name": "unpause",
      "outputs": [],
      "stateMutability": "nonpayable",
      "type": "function"
    }
  ],
  "bytecode": "0x60806040523480156200001157600080fd5b50604051620020a5380380620020a58339810160408190526200003491620004b1565b838381816005620000468382620005ca565b506006620000558282620005ca565b50506007805460ff19169055506200006f60003362000118565b6200009b7f9f2df0fed2c77648de5860a4cc508cd0818c85b8b8a1ab4ceeef8d981c8956a63362000118565b620000c77f65d7a28e3265b37a6474929f336521b332c1681b933f6cb9f3376673440d862a3362000118565b50506007805461ff00191661010060ff851690810291909117909155620000f090600a620007a9565b620000fc9082620007b7565b60088190556200010e90339062000128565b50505050620007e7565b620001248282620001ff565b5050565b6001600160a01b038216620001845760405162461bcd60e51b815260206004820152601f60248201527f45524332303a206d696e7420746f20746865207a65726f20616464726573730060448201526064015b60405180910390fd5b620001926000838362000242565b8060046000828254620001a69190620007d1565b90915550506001600160a01b0382166000818152600260209081526040808320805486019055518481527fddf252ad1be2c89b69c2b068fc378daa952ba7f163c4a11628f55a4df523b3ef910160405180910390a35050565b6200021682826200025a60201b6200095f1760201c565b60008281526001602090815260409091206200023d918390620009e3620002fa821b17901c565b505050565b6200023d8383836200031a60201b620009f81760201c565b6000828152602081815260408083206001600160a01b038516845290915290205460ff1662000124576000828152602081815260408083206001600160a01b03851684529091529020805460ff19166001179055620002b63390565b6001600160a01b0316816001600160a01b0316837f2f8788117e7eff1d82e926ec794901d17c78024a50270940304540a733656f0d60405160405180910390a45050565b600062000311836001600160a01b0384166200039a565b90505b92915050565b620003328383836200023d60201b620005631760201c565b60075460ff16156200023d5760405162461bcd60e51b815260206004820152602a60248201527f45524332305061757361626c653a20746f6b656e207472616e736665722077686044820152691a5b19481c185d5cd95960b21b60648201526084016200017b565b6000818152600183016020526040812054620003e35750815460018181018455600084815260208082209093018490558454848252828601909352604090209190915562000314565b50600062000314565b634e487b7160e01b600052604160045260246000fd5b600082601f8301126200041457600080fd5b81516001600160401b0380821115620004315762000431620003ec565b604051601f8301601f19908116603f011681019082821181831017156200045c576200045c620003ec565b816040528381526020925086838588010111156200047957600080fd5b600091505b838210156200049d57858201830151818301840152908201906200047e565b600093810190920192909252949350505050565b60008060008060808587031215620004c857600080fd5b84516001600160401b0380821115620004e057600080fd5b620004ee8883890162000402565b955060208701519150808211156200050557600080fd5b50620005148782880162000402565b935050604085015160ff811681146200052c57600080fd5b6060959095015193969295505050565b600181811c908216806200055157607f821691505b6020821081036200057257634e487b7160e01b600052602260045260246000fd5b50919050565b601f8211156200023d57600081815260208120601f850160051c81016020861015620005a15750805b601f850160051c820191505b81811015620005c257828155600101620005ad565b505050505050565b81516001600160401b03811115620005e657620005e6620003ec565b620005fe81620005f784546200053c565b8462000578565b602080601f8311600181146200063657600084156200061d5750858301515b600019600386901b1c1916600185901b178555620005c2565b600085815260208120601f198616915b82811015620006675788860151825594840194600190910190840162000646565b5085821015620006865787850151600019600388901b60f8161c191681555b5050505050600190811b01905550565b634e487b7160e01b600052601160045260246000fd5b600181815b80851115620006ed578160001904821115620006d157620006d162000696565b80851615620006df57918102915b93841c9390800290620006b1565b509250929050565b600082620007065750600162000314565b81620007155750600062000314565b81600181146200072e5760028114620007395762000759565b600191505062000314565b60ff8411156200074d576200074d62000696565b50506001821b62000314565b5060208310610133831016604e8410600b84101617156200077e575081810a62000314565b6200078a8383620006ac565b8060001904821115620007a157620007a162000696565b029392505050565b6000620003118383620006f5565b808202811582820484141762000314576200031462000696565b8082018082111562000314576200031462000696565b6118ae80620007f76000396000f3fe608060405234801561001057600080fd5b50600436106101cf5760003560e01c80635c975abb11610104578063a217fddf116100a2578063d539139311610071578063d5391393146103d1578063d547741f146103f8578063dd62ed3e1461040b578063e63ab1e91461041e57600080fd5b8063a217fddf14610390578063a457c2d714610398578063a9059cbb146103ab578063ca15c873146103be57600080fd5b80638456cb59116100de5780638456cb59146103425780639010d07c1461034a57806391d148541461037557806395d89b411461038857600080fd5b80635c975abb146102fb57806370a082311461030657806379cc67901461032f57600080fd5b80632ff2e9dc11610171578063395093511161014b57806339509351146102ba5780633f4ba83a146102cd57806340c10f19146102d557806342966c68146102e857600080fd5b80632ff2e9dc14610281578063313ce5671461028a57806336568abe146102a757600080fd5b806318160ddd116101ad57806318160ddd1461022457806323b872dd14610236578063248a9ca3146102495780632f2ff15d1461026c57600080fd5b806301ffc9a7146101d457806306fdde03146101fc578063095ea7b314610211575b600080fd5b6101e76101e236600461156e565b610445565b60405190151581526020015b60405180910390f35b610204610470565b6040516101f391906115bc565b6101e761021f36600461160b565b610502565b6004545b6040519081526020016101f3565b6101e7610244366004611635565b61051a565b610228610257366004611671565b60009081526020819052604090206001015490565b61027f61027a36600461168a565b61053e565b005b61022860085481565b600754610100900460ff1660405160ff90911681526020016101f3565b61027f6102b536600461168a565b610568565b6101e76102c836600461160b565b6105eb565b61027f61060d565b61027f6102e336600461160b565b6106b3565b61027f6102f6366004611671565b610752565b60075460ff166101e7565b6102286103143660046116b6565b6001600160a01b031660009081526002602052604090205490565b61027f61033d36600461160b565b61075f565b61027f610774565b61035d6103583660046116d1565b610818565b6040516001600160a01b0390911681526020016101f3565b6101e761038336600461168a565b610837565b610204610860565b610228600081565b6101e76103a636600461160b565b61086f565b6101e76103b936600461160b565b6108ea565b6102286103cc366004611671565b6108f8565b6102287f9f2df0fed2c77648de5860a4cc508cd0818c85b8b8a1ab4ceeef8d981c8956a681565b61027f61040636600461168a565b61090f565b6102286104193660046116f3565b610934565b6102287f65d7a28e3265b37a6474929f336521b332c1681b933f6cb9f3376673440d862a81565b60006001600160e01b03198216635a05180f60e01b148061046a575061046a82610a5e565b92915050565b60606005805461047f9061171d565b80601f01602080910402602001604051908101604052809291908181526020018280546104ab9061171d565b80156104f85780601f106104cd576101008083540402835291602001916104f8565b820191906000526020600020905b8154815290600101906020018083116104db57829003601f168201915b5050505050905090565b600033610510818585610a93565b5060019392505050565b600033610528858285610bb7565b610533858585610c31565b506001949350505050565b60008281526020819052604090206001015461055981610de7565b6105638383610df1565b505050565b6001600160a01b03811633146105dd5760405162461bcd60e51b815260206004820152602f60248201527f416363657373436f6e74726f6c3a2063616e206f6e6c792072656e6f756e636560448201526e103937b632b9903337b91039b2b63360891b60648201526084015b60405180910390fd5b6105e78282610e13565b5050565b6000336105108185856105fe8383610934565b610608919061176d565b610a93565b6106377f65d7a28e3265b37a6474929f336521b332c1681b933f6cb9f3376673440d862a33610837565b6106a95760405162461bcd60e51b815260206004820152603960248201527f45524332305072657365744d696e7465725061757365723a206d75737420686160448201527f76652070617573657220726f6c6520746f20756e70617573650000000000000060648201526084016105d4565b6106b1610e35565b565b6106dd7f9f2df0fed2c77648de5860a4cc508cd0818c85b8b8a1ab4ceeef8d981c8956a633610837565b6107485760405162461bcd60e51b815260206004820152603660248201527f45524332305072657365744d696e7465725061757365723a206d7573742068616044820152751d99481b5a5b9d195c881c9bdb19481d1bc81b5a5b9d60521b60648201526084016105d4565b6105e78282610e87565b61075c3382610f54565b50565b61076a823383610bb7565b6105e78282610f54565b61079e7f65d7a28e3265b37a6474929f336521b332c1681b933f6cb9f3376673440d862a33610837565b6108105760405162461bcd60e51b815260206004820152603760248201527f45524332305072657365744d696e7465725061757365723a206d75737420686160448201527f76652070617573657220726f6c6520746f20706175736500000000000000000060648201526084016105d4565b6106b1611094565b600082815260016020526040812061083090836110d1565b9392505050565b6000918252602082815260408084206001600160a01b0393909316845291905290205460ff1690565b60606006805461047f9061171d565b6000338161087d8286610934565b9050838110156108dd5760405162461bcd60e51b815260206004820152602560248201527f45524332303a2064656372656173656420616c6c6f77616e63652062656c6f77604482015264207a65726f60d81b60648201526084016105d4565b6105338286868403610a93565b600033610510818585610c31565b600081815260016020526040812061046a906110dd565b60008281526020819052604090206001015461092a81610de7565b6105638383610e13565b6001600160a01b03918216600090815260036020908152604080832093909416825291909152205490565b6109698282610837565b6105e7576000828152602081815260408083206001600160a01b03851684529091529020805460ff1916600117905561099f3390565b6001600160a01b0316816001600160a01b0316837f2f8788117e7eff1d82e926ec794901d17c78024a50270940304540a733656f0d60405160405180910390a45050565b6000610830836001600160a01b0384166110e7565b60075460ff16156105635760405162461bcd60e51b815260206004820152602a60248201527f45524332305061757361626c653a20746f6b656e207472616e736665722077686044820152691a5b19481c185d5cd95960b21b60648201526084016105d4565b60006001600160e01b03198216637965db0b60e01b148061046a57506301ffc9a760e01b6001600160e01b031983161461046a565b6001600160a01b038316610af55760405162461bcd60e51b8152602060048201526024808201527f45524332303a20617070726f76652066726f6d20746865207a65726f206164646044820152637265737360e01b60648201526084016105d4565b6001600160a01b038216610b565760405162461bcd60e51b815260206004820152602260248201527f45524332303a20617070726f766520746f20746865207a65726f206164647265604482015261737360f01b60648201526084016105d4565b6001600160a01b0383811660008181526003602090815260408083209487168084529482529182902085905590518481527f8c5be1e5ebec7d5bd14f71427d1e84f3dd0314c0f7b2291e5b200ac8c7c3b925910160405180910390a3505050565b6000610bc38484610934565b90506000198114610c2b5781811015610c1e5760405162461bcd60e51b815260206004820152601d60248201527f45524332303a20696e73756666696369656e7420616c6c6f77616e636500000060448201526064016105d4565b610c2b8484848403610a93565b50505050565b6001600160a01b038316610c955760405162461bcd60e51b815260206004820152602560248201527f45524332303a207472616e736665722066726f6d20746865207a65726f206164604482015264647265737360d81b60648201526084016105d4565b6001600160a01b038216610cf75760405162461bcd60e51b815260206004820152602360248201527f45524332303a207472616e7366657220746f20746865207a65726f206164647260448201526265737360e81b60648201526084016105d4565b610d02838383611136565b6001600160a01b03831660009081526002602052604090205481811015610d7a5760405162461bcd60e51b815260206004820152602660248201527f45524332303a207472616e7366657220616d6f756e7420657863656564732062604482015265616c616e636560d01b60648201526084016105d4565b6001600160a01b0380851660008181526002602052604080822086860390559286168082529083902080548601905591517fddf252ad1be2c89b69c2b068fc378daa952ba7f163c4a11628f55a4df523b3ef90610dda9086815260200190565b60405180910390a3610c2b565b61075c8133611141565b610dfb828261095f565b600082815260016020526040902061056390826109e3565b610e1d828261119a565b600082815260016020526040902061056390826111ff565b610e3d611214565b6007805460ff191690557f5db9ee0a495bf2e6ff9c91a7834c1ba4fdd244a5e8aa4e537bd38aeae4b073aa335b6040516001600160a01b03909116815260200160405180910390a1565b6001600160a01b038216610edd5760405162461bcd60e51b815260206004820152601f60248201527f45524332303a206d696e7420746f20746865207a65726f20616464726573730060448201526064016105d4565b610ee960008383611136565b8060046000828254610efb919061176d565b90915550506001600160a01b0382166000818152600260209081526040808320805486019055518481527fddf252ad1be2c89b69c2b068fc378daa952ba7f163c4a11628f55a4df523b3ef910160405180910390a35050565b6001600160a01b038216610fb45760405162461bcd60e51b815260206004820152602160248201527f45524332303a206275726e2066726f6d20746865207a65726f206164647265736044820152607360f81b60648201526084016105d4565b610fc082600083611136565b6001600160a01b038216600090815260026020526040902054818110156110345760405162461bcd60e51b815260206004820152602260248201527f45524332303a206275726e20616d6f756e7420657863656564732062616c616e604482015261636560f01b60648201526084016105d4565b6001600160a01b03831660008181526002602090815260408083208686039055600480548790039055518581529192917fddf252ad1be2c89b69c2b068fc378daa952ba7f163c4a11628f55a4df523b3ef910160405180910390a3505050565b61109c61125d565b6007805460ff191660011790557f62e78cea01bee320cd4e420270b5ea74000d11b0c9f74754ebdbfc544b05a258610e6a3390565b600061083083836112a3565b600061046a825490565b600081815260018301602052604081205461112e5750815460018181018455600084815260208082209093018490558454848252828601909352604090209190915561046a565b50600061046a565b6105638383836109f8565b61114b8282610837565b6105e757611158816112cd565b6111638360206112df565b604051602001611174929190611780565b60408051601f198184030181529082905262461bcd60e51b82526105d4916004016115bc565b6111a48282610837565b156105e7576000828152602081815260408083206001600160a01b0385168085529252808320805460ff1916905551339285917ff6391f5c32d9c69d2a47ea670b442974b53935d1edc7fd64eb21e047a839171b9190a45050565b6000610830836001600160a01b03841661147b565b60075460ff166106b15760405162461bcd60e51b815260206004820152601460248201527314185d5cd8589b194e881b9bdd081c185d5cd95960621b60448201526064016105d4565b60075460ff16156106b15760405162461bcd60e51b815260206004820152601060248201526f14185d5cd8589b194e881c185d5cd95960821b60448201526064016105d4565b60008260000182815481106112ba576112ba6117f5565b9060005260206000200154905092915050565b606061046a6001600160a01b03831660145b606060006112ee83600261180b565b6112f990600261176d565b67ffffffffffffffff81111561131157611311611822565b6040519080825280601f01601f19166020018201604052801561133b576020820181803683370190505b509050600360fc1b81600081518110611356576113566117f5565b60200101906001600160f81b031916908160001a905350600f60fb1b81600181518110611385576113856117f5565b60200101906001600160f81b031916908160001a90535060006113a984600261180b565b6113b490600161176d565b90505b600181111561142c576f181899199a1a9b1b9c1cb0b131b232b360811b85600f16601081106113e8576113e86117f5565b1a60f81b8282815181106113fe576113fe6117f5565b60200101906001600160f81b031916908160001a90535060049490941c9361142581611838565b90506113b7565b5083156108305760405162461bcd60e51b815260206004820181905260248201527f537472696e67733a20686578206c656e67746820696e73756666696369656e7460448201526064016105d4565b6000818152600183016020526040812054801561156457600061149f60018361184f565b85549091506000906114b39060019061184f565b90508181146115185760008660000182815481106114d3576114d36117f5565b90600052602060002001549050808760000184815481106114f6576114f66117f5565b6000918252602080832090910192909255918252600188019052604090208390555b855486908061152957611529611862565b60019003818190600052602060002001600090559055856001016000868152602001908152602001600020600090556001935050505061046a565b600091505061046a565b60006020828403121561158057600080fd5b81356001600160e01b03198116811461083057600080fd5b60005b838110156115b357818101518382015260200161159b565b50506000910152565b60208152600082518060208401526115db816040850160208701611598565b601f01601f19169190910160400192915050565b80356001600160a01b038116811461160657600080fd5b919050565b6000806040838503121561161e57600080fd5b611627836115ef565b946020939093013593505050565b60008060006060848603121561164a57600080fd5b611653846115ef565b9250611661602085016115ef565b9150604084013590509250925092565b60006020828403121561168357600080fd5b5035919050565b6000806040838503121561169d57600080fd5b823591506116ad602084016115ef565b90509250929050565b6000602082840312156116c857600080fd5b610830826115ef565b600080604083850312156116e457600080fd5b50508035926020909101359150565b6000806040838503121561170657600080fd5b61170f836115ef565b91506116ad602084016115ef565b600181811c9082168061173157607f821691505b60208210810361175157634e487b7160e01b600052602260045260246000fd5b50919050565b634e487b7160e01b600052601160045260246000fd5b8082018082111561046a5761046a611757565b7f416363657373436f6e74726f6c3a206163636f756e74200000000000000000008152600083516117b8816017850160208801611598565b7001034b99036b4b9b9b4b733903937b6329607d1b60179184019182015283516117e9816028840160208801611598565b01602801949350505050565b634e487b7160e01b600052603260045260246000fd5b808202811582820484141761046a5761046a611757565b634e487b7160e01b600052604160045260246000fd5b60008161184757611847611757565b506000190190565b8181038181111561046a5761046a611757565b634e487b7160e01b600052603160045260246000fdfea2646970667358221220d386020b7828f2bbca8f75a2f0c1659edd03c1666b092547879211da4d3b956564736f6c63430008110033",
  "linkReferences": {},
  "deployedLinkReferences": {}
}